:020000040800F2
:10000000008001206D0A0008C9090008CF09000816
:10001000D5090008DB090008E1090008000000001C
:10002000000000000000000000000000E7090008D8
:10003000F509000800000000030A0008110A000882
:10004000BD0A0008BD0A0008BD0A0008BD0A000874
:10005000BD0A0008BD0A0008BD0A0008BD0A000864
:10006000BD0A0008BD0A0008BD0A0008BD0A000854
:10007000BD0A0008BD0A0008BD0A0008BD0A000844
:10008000BD0A0008BD0A0008BD0A0008BD0A000834
:10009000BD0A0008BD0A0008BD0A0008BD0A000824
:1000A000BD0A0008210A0008BD0A0008BD0A0008B0
:1000B000BD0A0008BD0A0008BD0A0008BD0A000804
:1000C000BD0A0008BD0A0008BD0A0008BD0A0008F4
:1000D000BD0A0008BD0A0008BD0A0008BD0A0008E4
:1000E000BD0A0008BD0A0008BD0A0008BD0A0008D4
:1000F000BD0A0008BD0A0008BD0A0008BD0A0008C4
:10010000BD0A0008BD0A0008BD0A0008BD0A0008B3
:10011000BD0A0008BD0A0008BD0A0008BD0A0008A3
:10012000BD0A0008BD0A0008BD0A0008BD0A000893
:10013000BD0A0008BD0A0008BD0A0008BD0A000883
:10014000BD0A0008BD0A0008BD0A0008350A0008FB
:10015000BD0A0008BD0A0008BD0A0008BD0A000863
:10016000BD0A0008BD0A0008BD0A0008BD0A000853
:10017000BD0A0008BD0A0008BD0A00080000000012
:08018000BD0A0008BD0A0008D9
:1001880010B5054C237833B9044B13B10448AFF3C9
:1001980000800123237010BDF0040020000000003F
:1001A800C893000808B5034B1BB103490348AFF3D4
:1001B800008008BD00000000F4040020C893000877
:1001C80053B94AB9002908BF00281CBF4FF0FF31B6
:1001D8004FF0FF3000F074B9ADF1080C6DE904CEB2
:1001E80000F006F8DDF804E0DDE9022304B070470A
:1001F8002DE9F047089D04468E46002B4DD18A42D2
:10020800944669D9B2FA82F252B101FA02F3C2F104
:10021800200120FA01F10CFA02FC41EA030E944095
:100228004FEA1C48210CBEFBF8F61FFA8CF708FBB6
:1002380016E341EA034306FB07F199420AD91CEB8E
:10024800030306F1FF3080F01F81994240F21C81C0
:10025800023E63445B1AA4B2B3FBF8F008FB103308
:1002680044EA034400FB07F7A7420AD91CEB04043D
:1002780000F1FF3380F00A81A74240F2078164440D
:10028800023840EA0640E41B00261DB1D440002392
:10029800C5E900433146BDE8F0878B4209D9002DF6
:1002A80000F0EF800026C5E9000130463146BDE880
:1002B800F087B3FA83F6002E4AD18B4202D38242EA
:1002C80000F2F980841A61EB030301209E46002D99
:1002D800E0D0C5E9004EDDE702B9FFDEB2FA82F2EE
:1002E800002A40F09280A1EB0C014FEA1C471FFA4C
:1002F8008CFE0126200CB1FBF7F307FB131140EA33
:1003080001410EFB03F0884208D91CEB010103F1FF
:10031800FF3802D2884200F2CB804346091AA4B2C1
:10032800B1FBF7F007FB101144EA01440EFB00FE95
:10033800A64508D91CEB040400F1FF3102D2A645FA
:1003480000F2BB800846A4EB0E0440EA03409CE799
:10035800C6F12007B34022FA07FC4CEA030C20FA46
:1003680007F401FA06F31C43F9404FEA1C4900FA66
:1003780006F3B1FBF9F8200C1FFA8CFE09FB1811E3
:1003880040EA014108FB0EF0884202FA06F20BD956
:100398001CEB010108F1FF3A80F08880884240F2A6
:1003A8008580A8F102086144091AA4B2B1FBF9F0EA
:1003B80009FB101144EA014100FB0EFE8E4508D9E5
:1003C8001CEB010100F1FF346CD28E456AD902386A
:1003D800614440EA0840A0FB0294A1EB0E01A1424F
:1003E800C846A64656D353D05DB1B3EB080261EBBD
:1003F8000E0101FA07F722FA06F3F1401F43C5E997
:10040800007100263146BDE8F087C2F12003D840CC
:100418000CFA02FC21FA03F3914001434FEA1C470E
:100428001FFA8CFEB3FBF7F007FB10360B0C43EA00
:10043800064300FB0EF69E4204FA02F408D91CEBB0
:10044800030300F1FF382FD29E422DD902386344AE
:100458009B1B89B2B3FBF7F607FB163341EA03414E
:1004680006FB0EF38B4208D91CEB010106F1FF389D
:1004780016D28B4214D9023E6144C91A46EA004694
:1004880038E72E46284605E70646E3E61846F8E626
:100498004B45A9D2B9EB020864EB0C0E0138A3E76F
:1004A8004646EAE7204694E74046D1E7D0467BE750
:1004B800023B614432E7304609E76444023842E7C8
:1004C800704700BF80B582B000AF00F0F4FA00F0CA
:1004D80011F800F091F800F05FF808F0A7F84FF471
:1004E8007A7000F021FB05237B6005F043FF06F0DE
:1004F80027F8FAE780B596B000AF07F11403442255
:100508000021184608F054FF3B4600221A605A6042
:100518009A60DA601A614FF4007001F0B3FF034685
:10052800002B01D000F058F910237B610123FB62F6
:1005380000233B6360237B630223FB6301233B644B
:1005480001237B642823BB640723FB6402233B65E8
:1005580002237B6507F11403184601F0F9FF0346EF
:10056800002B01D000F038F90F233B6003237B6098
:100578000023BB600023FB6000233B613B46042152
:10058800184602F0C1FB0346002B01D000F024F905
:1005980000BF5837BD4680BD80B500AF144B154A23
:1005A8001A60134B47F612225A60114B00229A60C8
:1005B8000F4B0022DA600E4B00221A610C4B0C2202
:1005C8005A610B4B00229A61094B0022DA61084BF1
:1005D80000221A62064B00225A62054803F078FD91
:1005E8000346002B01D000F0F7F800BF80BD00BF24
:1005F8000C0500200044004080B58AB000AF07F128
:10060800140300221A605A609A60DA601A61654B16
:10061800DB6C644A43F00403D364624BDB6C03F085
:1006280004033B613B695F4BDB6C5E4A43F080032C
:10063800D3645C4BDB6C03F08003FB60FB68594BB5
:10064800DB6C584A43F00103D364564BDB6C03F070
:100658000103BB60BB68534BDB6C524A43F0020397
:10066800D364504BDB6C03F002037B607B684D4B1B
:10067800DB6C4C4A43F00803D3644A4BDB6C03F051
:1006880008033B603B680022F0214FF0904000F0E7
:1006980013FD00224FF4F871434800F00DFD0022CD
:1006A8004FF60301414800F007FD4FF47E437B619C
:1006B8000023BB610223FB6107F1140319463A4882
:1006C80000F038FB01237B610B23BB610023FB6136
:1006D80007F114031946344800F02CFB0E237B6104
:1006E8000023BB610023FB6107F1140319462E4860
:1006F80000F020FB48F203737B610023BB610223F7
:10070800FB6107F1140319464FF0904000F012FB0B
:10071800F0237B610123BB610223FB6100233B6261
:1007280007F1140319464FF0904000F003FB4FF413
:10073800F8737B610123BB610223FB6100233B62E9
:1007480007F114031946184800F0F4FA4FF60303AA
:100758007B610123BB610223FB6100233B6207F13C
:1007680014031946114800F0E5FA40F2F4737B616E
:100778000023BB610223FB6107F1140319460B48F0
:1007880000F0D8FA04237B610023BB610223FB61DC
:1007980007F114031946064800F0CCFA00BF2837C1
:1007A800BD4680BD00100240000800480004004813
:1007B800000C004880B582B000AF78607B681B6889
:1007C800044A934201D100F08FF900BF0837BD46B3
:1007D80080BD00BF002C014080B400AF72B600BFDE
:1007E800FEE7000080B483B000AF0F4B1B6E0E4ACB
:1007F80043F0010313660C4B1B6E03F001037B608F
:100808007B68094B9B6D084A43F080539365064B00
:100818009B6D03F080533B603B6800BF0C37BD46BF
:100828005DF8047B704700BF0010024080B5ACB093
:1008380000AF786007F19C0300221A605A609A6042
:10084800DA601A6107F1140388220021184608F0BB
:10085800AFFD7B681B68214A93423BD102237B6131
:1008680000233B6507F11403184602F0A3FC034676
:10087800002B01D0FFF7B0FF194B9B6D184A43F4CA
:1008880000339365164B9B6D03F400333B613B6962
:10089800134BDB6C124A43F00103D364104BDB6C3F
:1008A80003F00103FB60FB680C23C7F89C300223AC
:1008B800C7F8A0300023C7F8A4300323C7F8A8302E
:1008C8000723C7F8AC3007F19C0319464FF0904056
:1008D80000F030FA00BFB037BD4680BD004400408C
:1008E8000010024080B58CB000AF7860002387F814
:1008F8002F302E4B1B6E2D4A43F4006313662B4B8F
:100908001B6E03F40063BB60BB6807F10C0207F1C0
:1009180010031146184602F0BBFB02F0A3FBB862B5
:10092800BB6A234AA2FB03239B0C013B7B62214B3E
:10093800214A1A601F4B40F2E732DA601D4A7B6A8F
:1009480053601C4B00221A611A4B00229A60194B03
:1009580000229A61174803F0E9F8034687F82F3018
:1009680097F82F30002B1BD1124803F041F90346AA
:1009780087F82F3097F82F30002B11D1192000F06D
:10098800CBF97B680F2B08D800227968192000F072
:10099800A7F90A4A7B68136002E0012387F82F3021
:1009A80097F82F3018463037BD4680BD00100240FA
:1009B80083DE1B4390050020002C0140040000202A
:1009C80080B400AFFEE780B400AFFEE780B400AFAC
:1009D800FEE780B400AFFEE780B400AFFEE780B466
:1009E80000AF00BFBD465DF8047B704780B400AF20
:1009F80000BFBD465DF8047B704780B400AF00BF00
:100A0800BD465DF8047B704780B400AF00BFBD46AB
:100A18005DF8047B7047000080B500AF024803F022
:100A280057F900BF80BD00BF9005002080B500AF1A
:100A3800024800F0ACFC00BF80BD00BF200F0020C2
:100A480080B400AF064BD3F88830054A43F47003EE
:100A5800C2F8883000BFBD465DF8047B704700BF10
:100A680000ED00E0DFF834D0FFF7EAFF0C480D494D
:100A78000D4A002302E0D458C4500433C4188C42F1
:100A8800F9D30A4A0A4C002301E013600432A24257
:100A9800FBD308F069FCFFF715FDFEE70080012095
:100AA80000000020F004002070940008F0040020EA
:100AB800FC2F0020FEE780B582B000AF0023FB7159
:100AC800032000F002F90F20FFF70CFF0346002B6C
:100AD80002D00123FB7101E0FFF784FEFB79184681
:100AE8000837BD4680BD000080B400AF064B1B78B8
:100AF8001A46064B1B681344044A136000BFBD46E0
:100B08005DF8047B704700BF08000020DC0500206A
:100B180080B400AF034B1B681846BD465DF8047BE4
:100B2800704700BFDC05002080B584B000AF786056
:100B3800FFF7EEFFB8607B68FB60FB68B3F1FF3F2F
:100B480005D00A4B1B781A46FB681344FB6000BFAC
:100B5800FFF7DEFF0246BB68D31AFA689A42F7D855
:100B680000BF00BF1037BD4680BD00BF0800002091
:100B780080B485B000AF78607B6803F00703FB6042
:100B88000C4BDB68BB60BA684FF6FF031340BB60D1
:100B9800FB681A02BB68134343F0BF6343F4003396
:100BA800BB60044ABB68D36000BF1437BD465DF81C
:100BB800047B704700ED00E080B400AF044BDB68B5
:100BC8001B0A03F007031846BD465DF8047B70470F
:100BD80000ED00E080B483B000AF0346FB7197F9E5
:100BE8000730002B0BDBFB7903F01F02074997F94D
:100BF80007305B09012000FA02F241F8232000BF08
:100C08000C37BD465DF8047B704700BF00E100E08B
:100C180080B483B000AF03463960FB7197F90730A1
:100C2800002B0ADB3B68DAB20C4997F9073012014E
:100C3800D2B20B4483F800230AE03B68DAB20849D1
:100C4800FB7903F00F03043B1201D2B20B441A766E
:100C580000BF0C37BD465DF8047B704700E100E03B
:100C680000ED00E080B489B000AFF860B9607A6048
:100C7800FB6803F00703FB61FB69C3F10703042B5F
:100C880028BF0423BB61FB690433062B02D9FB6927
:100C9800033B00E000237B614FF0FF32BB6902FA9F
:100CA80003F3DA43BB681A407B699A404FF0FF317F
:100CB8007B6901FA03F3D9437B680B401343184659
:100CC8002437BD465DF8047B704780B582B000AF1D
:100CD80078607868FFF74CFF00BF0837BD4680BDD5
:100CE80080B586B000AF0346B9607A60FB73002315
:100CF8007B61FFF761FF78617A68B9687869FFF707
:100D0800B1FF024697F90F3011461846FFF780FFEA
:100D180000BF1837BD4680BD80B582B000AF03461E
:100D2800FB7197F907301846FFF754FF00BF0837E3
:100D3800BD4680BD80B487B000AF786039600023BD
:100D48007B617FE13B681A6801217B6901FA03F343
:100D58001340FB60FB68002B00F071813B685B6807
:100D680003F00303012B05D03B685B6803F0030322
:100D7800022B30D17B689B683B617B695B00032257
:100D880002FA03F3DB433A6913403B613B68DA68D4
:100D98007B695B0002FA03F33A6913433B617B68A2
:100DA8003A699A607B685B683B6101227B6902FA59
:100DB80003F3DB433A6913403B613B685B681B09FB
:100DC80003F001027B6902FA03F33A6913433B61BA
:100DD8007B683A695A603B685B6803F00303032B3E
:100DE80018D17B68DB6A3B6101227B6902FA03F355
:100DF800DB433A6913403B613B685B68DB0803F0FF
:100E080001027B6902FA03F33A6913433B617B6889
:100E18003A69DA623B685B6803F00303032B17D077
:100E28007B68DB683B617B695B00032202FA03F3A2
:100E3800DB433A6913403B613B689A687B695B0016
:100E480002FA03F33A6913433B617B683A69DA6053
:100E58003B685B6803F00303022B23D17B69DA0844
:100E68007B68083253F822303B617B6903F0070343
:100E78009B000F2202FA03F3DB433A6913403B61FC
:100E88003B681A697B6903F007039B0002FA03F3C6
:100E98003A6913433B617B69DA087B680832396930
:100EA80043F822107B681B683B617B695B00032267
:100EB80002FA03F3DB433A6913403B613B685B6822
:100EC80003F003027B695B0002FA03F33A691343F8
:100ED8003B617B683A691A603B685B6803F440339E
:100EE800002B00F0AC805F4B1B6E5E4A43F00103A1
:100EF80013665C4B1B6E03F00103BB60BB685A4A68
:100F08007B699B08023352F823303B617B6903F00D
:100F180003039B000F2202FA03F3DB433A691340F1
:100F28003B617B68B3F1904F25D07B684F4A934271
:100F38001FD07B684E4A934219D07B684D4A934232
:100F480013D07B684C4A93420DD07B684B4A93423E
:100F580007D07B684A4A934201D106230CE0072355
:100F68000AE0052308E0042306E0032304E0022343
:100F780002E0012300E000237A6902F003029200F4
:100F880093403A6913433B6137497B699B080233B5
:100F98003A6941F823203B4B9B683B61FB68DB4384
:100FA8003A6913403B613B685B6803F48013002B8C
:100FB80003D03A69FB6813433B61324A3B6993604B
:100FC800304BDB683B61FB68DB433A6913403B61AC
:100FD8003B685B6803F40013002B03D03A69FB6895
:100FE80013433B61274A3B69D360264B5B683B61EF
:100FF800FB68DB433A6913403B613B685B6803F479
:101008000033002B03D03A69FB6813433B611D4A48
:101018003B6953601B4B1B683B61FB68DB433A69C8
:1010280013403B613B685B6803F48033002B03D0BB
:101038003A69FB6813433B61124A3B6913607B6959
:1010480001337B613B681A687B6922FA03F3002B42
:101058007FF478AE00BF00BF1C37BD465DF8047B47
:10106800704700BF00100240000001400004004823
:1010780000080048000C0048001000480014004810
:10108800001800480004014080B485B000AF7860C3
:101098000B467B807B681A697B881340002B02D043
:1010A8000123FB7301E00023FB73FB7B1846143715
:1010B800BD465DF8047B704780B483B000AF7860AC
:1010C8000B467B8013467B707B78002B03D07A8895
:1010D8007B689A6102E07A887B689A6200BF0C3765
:1010E800BD465DF8047B7047F0B58FB00AAF7860F5
:1010F8007B68002B01D1012316E17B681B68BB606C
:101108007B6893F8BD34DBB2002B06D17B680022E4
:1011180083F8BC24786807F0E3FC7B68032283F833
:10112800BD24BB68DB6B03F48073002B02D17B68A2
:1011380000221A617B681B68184603F0ECFD7B6887
:101148001B683B607E686D4606F110040FCC0FC526
:101158000FCC0FC594E8030085E80300331D0ECBC0
:10116800386803F0FEFC0346002B05D07B6802229A
:1011780083F8BD240123D7E07B681B68002118464B
:1011880003F0DAFD0023FB734AE0FA7B7968134623
:10119800DB0013449B000B443D3301221A70FA7B99
:1011A80079681346DB0013449B000B443C33FA7BFD
:1011B8001A70FA7BFB7B98B279681346DB001344FC
:1011C8009B000B44443302461A80FA7B7968134625
:1011D800DB0013449B000B44403300221A70FA7B57
:1011E80079681346DB0013449B000B444833002204
:1011F8001A60FA7B79681346DB0013449B000B44A2
:101208004C3300221A60FA7B79681346DB001344DA
:101218009B000B44543300221A60FB7B0133FB73A1
:10122800FA7B7B685B689A42AFD30023FB7344E088
:10123800FA7B79681346DB0013449B000B4403F2E6
:101248007D2300221A70FA7B79681346DB00134469
:101258009B000B4403F51F73FA7B1A70FA7B7968BD
:101268001346DB0013449B000B4403F52073002254
:101278001A70FA7B79681346DB0013449B000B4411
:1012880003F5227300221A60FA7B79681346DB00A3
:1012980013449B000B4403F5237300221A60FA7B66
:1012A80079681346DB0013449B000B4403F5257350
:1012B80000221A60FB7B0133FB73FA7B7B685B6857
:1012C8009A42B5D37B681B683B607E686D4606F121
:1012D80010040FCC0FC50FCC0FC594E8030085E8A8
:1012E8000300331D0ECB386803F072FD0346002B54
:1012F80005D07B68022283F8BD24012314E07B68B3
:10130800002283F838207B68012283F8BD247B689B
:101318005B6A012B02D1786801F082F87B681B6850
:10132800184604F0FAFD002318461437BD46F0BDF0
:1013380080B584B000AF78607B681B68FB607B6811
:1013480093F8BC34012B01D102231CE07B680122F5
:1013580083F8BC247B689B6A012B05D1FB689B6BD7
:1013680043F48032FB689A637B681B68184603F075
:10137800C1FC7B681B68184604F0AEFD7B68002240
:1013880083F8BC24002318461037BD4680BD90B5AD
:101398008DB000AF78607B681B683B623B6AFB617D
:1013A8007B681B68184604F06CFE0346002B40F06F
:1013B8007E847B681B68184604F0D0FD0346002B2A
:1013C80000F07484FB6903F500639B681B0AC3F390
:1013D8000D027B68C3F8FC247B681B68184604F080
:1013E800BDFD034603F00203022B07D17B681B688F
:1013F8005A697B681B6802F002025A617B681B68A5
:10140800184604F0ABFD034603F01003102B61D11E
:101418007B681B689A697B681B6822F010029A61D6
:101428003B6A1B6ABB61BB6903F00F021346DB0012
:1014380013449B0003F51E737A68134404337B61DD
:10144800BB695B0C03F00F03022B24D1BA6947F682
:10145800F0731340002B35D07B691969BB691B09F0
:101468009BB2C3F30A039BB21A46386A04F0E2FB44
:101478007B691A69BB691B09C3F30A031A447B69B0
:101488001A617B691A6ABB691B09C3F30A031A4408
:101498007B691A6216E0BB695B0C03F00F03062B2D
:1014A80010D17B6803F2C44308221946386A04F055
:1014B800C1FB7B691A6ABB691B09C3F30A031A4497
:1014C8007B691A627B681B689A697B681B6842F0B3
:1014D80010029A617B681B68184604F03FFD0346BA
:1014E80003F40023B3F5002F40F0A78000237B62AC
:1014F8007B681B68184604F044FDB86299E0BB6A33
:1015080003F00103002B00F08E807B681B687A6A69
:10151800D2B21146184604F068FD38613B6903F001
:101528000103002B0CD07B6A5A01FB69134403F5B5
:1015380030631A4601239360796A786800F096FE52
:101548003B6903F00803002B0CD07B6A5A01FB6946
:10155800134403F530631A4608239360796A786860
:1015680000F0D2FE3B6903F01003002B08D07B6A21
:101578005A01FB69134403F530631A46102393603C
:101588003B6903F00203002B30D03B6A5B6903F030
:101598008003802B09D1FB6903F500635B68FA6956
:1015A80002F5006243F4806353607A6A1346DB00F5
:1015B80013449B0003F51E737A68134404337B615C
:1015C8007B69DB78012B08D17B690022DA707B6AA2
:1015D800DBB21946786807F0D7FB7B6A5A01FB69CA
:1015E800134403F530631A46022393603B6903F002
:1015F8002003002B08D07B6A5A01FB69134403F5CA
:1016080030631A46202393603B6903F40053002B90
:1016180009D07B6A5A01FB69134403F530631A4603
:101628004FF4005393607B6A01337B62BB6A5B08AB
:10163800BB62BB6A002B7FF462AF7B681B681846ED
:1016480004F08CFC034603F48023B3F5802F40F0AC
:10165800A4807B681B68184604F0ADFCB8620023C0
:101668007B6296E0BB6A03F00103002B00F08B80DD
:101678007B681B687A6AD2B21146184604F0D3FC1C
:1016880038613B6903F00103002B20D07B6A03F02B
:101698000F03012202FA03F3FB60FB6903F5006301
:1016A8005A6BFB68DB43F96901F5006113404B6332
:1016B8007B6A5A01FB69134403F510631A46012338
:1016C80093607B6ADBB21946786807F0C8FA3B6911
:1016D80003F00803002B08D07B6A5A01FB69134406
:1016E80003F510631A46082393603B6903F010035F
:1016F800002B08D07B6A5A01FB69134403F5106379
:101708001A46102393603B6903F04003002B08D06E
:101718007B6A5A01FB69134403F510631A46402398
:1017280093603B6903F00203002B23D0796A386A7F
:1017380003F09AFC7A6A1346DB0013449B003833A3
:101748007A68134404337B617B69DB78012B08D109
:101758007B690022DA707B6ADBB21946786807F089
:1017680025FB7B6A5A01FB69134403F510631A468B
:10177800022393603B6903F08003002B03D0796A4E
:10178800786800F0EAFC7B6A01337B62BB6A5B081D
:10179800BB62BB6A002B7FF465AF7B681B68184689
:1017A80004F0DCFB034603F00043B3F1004F22D101
:1017B800FB6903F500635B68FA6902F5006223F0D0
:1017C800010353607B6893F8F434012B08D17B68DC
:1017D800002283F8F4240021786807F059FD02E01C
:1017E800786807F0A9FA7B681B685A697B681B68E8
:1017F80002F000425A617B681B68184604F0AEFB91
:10180800034603F40063B3F5006F12D1FB6903F5D7
:1018180000639B6803F00103012B02D1786807F08D
:1018280065FA7B681B685A697B681B6802F400626A
:101838005A617B681B68184604F090FB034603F066
:101848000063B3F1006F21D17B681B685A697B681C
:101858001B6802F000625A617B6893F8F434002B2D
:1018680011D17B68012283F8F4247B681B685B6DC7
:101878009B0803F00F027B68C3F8F82401217868FD
:1018880007F006FD02E0786807F030FA7B681B680D
:10189800184604F063FB034603F48053B3F5805FF6
:1018A80040F0B580FB6903F500635B68FA6902F5EF
:1018B800006223F0010353607B681B6810211846FF
:1018C80003F0D2FB0023FB6246E0FB6A5A01FB6986
:1018D800134403F510631A464FF67F339360FB6A8F
:1018E8005A01FB69134403F510631B68FA6A510136
:1018F800FA690A4402F5106223F400131360FB6AC4
:101908005A01FB69134403F530631A464FF67F33D7
:101918009360FB6A5A01FB69134403F530631B6843
:10192800FA6A5101FA690A4402F5306223F4001395
:101938001360FB6A5A01FB69134403F530631B68A3
:10194800FA6A5101FA690A4402F5306243F0006309
:101958001360FB6A0133FB627B685B68FA6A9A4230
:10196800B3D3FB6903F50063DB69FA6902F500622A
:1019780043F00113D3617B681B6B002B16D0FB6906
:1019880003F50063D3F88430FA6902F5006243F086
:101998000B03C2F88430FB6903F500635B6CFA69DA
:1019A80002F5006243F00B03536415E0FB6903F58D
:1019B80000635B69FA6902F5006243F4005343F07F
:1019C8002B035361FB6903F500631B69FA6902F590
:1019D800006243F00B031361FB6903F500631B68A6
:1019E800FA6902F5006223F4FE6313607B681A68E3
:1019F8007B6803F2C4431946104604F073FB7B6806
:101A08001B685A697B681B6802F480525A617B68BC
:101A18001B68184604F0A2FA034603F40053B3F512
:101A2800005F24D17B681B68184604F038FB7B688C
:101A38001B68184603F095FB03461A467B68DA6074
:101A48007B681C6801F0ECFA01467B68DB68DBB256
:101A58001A46204603F0B2F8786807F028F97B6840
:101A68001B685A697B681B6802F400525A617B68DC
:101A78001B68184604F072FA034603F00803082BA3
:101A88000AD1786807F005F97B681B685A697B6892
:101A98001B6802F008025A617B681B68184604F04C
:101AA8005DFA034603F08003802B22D13B6A9B69D1
:101AB80023F080023B6A9A6101237B6214E0796813
:101AC8007A6A1346DB0013449B000B4403F27F231E
:101AD8001B78012B05D17B6ADBB21946786800F0C8
:101AE8000BFB7B6A01337B627B685B687A6A9A428C
:101AF800E5D37B681B68184604F030FA034603F404
:101B08008013B3F5801F3BD101237B622BE07B6AF6
:101B18005A01FB69134403F510631B68BB617968BC
:101B28007A6A1346DB0013449B000B4440331B784E
:101B3800012B15D1BB69002B12DA79687A6A134632
:101B4800DB0013449B000B443F3301221A707B6A6D
:101B5800DBB263F07F03DBB21946786800F0CCFA99
:101B68007B6A01337B627B685B687A6A9A42CED370
:101B78007B681B685A697B681B6802F480125A618B
:101B88007B681B68184604F0E9F9034603F4001360
:101B9800B3F5001F55D101237B6245E07B6A5A01EA
:101BA800FB69134403F530631B68BB6179687A6A83
:101BB8001346DB0013449B000B4403F520731B788A
:101BC800012B2ED1BB69002B2BDABB6903F48032C1
:101BD8007B68D3F8FC3403F001039A4221D1796879
:101BE8007A6A1346DB0013449B000B4403F27F23FD
:101BF80001221A703B6A9B6943F080023B6A9A6132
:101C08003B6A5B6903F08003002B0AD1FB6903F58B
:101C180000635B68FA6902F5006243F4007353607D
:101C280007E07B6A01337B627B685B687A6A9A4269
:101C3800B4D37B681B685A697B681B6802F400127E
:101C48005A617B681B68184604F088F9034603F05C
:101C58008043B3F1804F0AD1786807F0B9F87B6800
:101C68001B685A697B681B6802F080425A617B686E
:101C78001B68184604F072F9034603F00403042BAA
:101C880015D17B681B685B68BB61BB6903F0040303
:101C9800002B02D0786807F0A9F87B681B685968A0
:101CA8007B681B68BA690A435A6000E000BF343792
:101CB800BD4690BD80B582B000AF78600B46FB7022
:101CC8007B6893F8BC34012B01D1022313E07B68B5
:101CD800012283F8BC247B68FA7883F838207B6873
:101CE8001B68FA781146184604F0D0F87B68002281
:101CF80083F8BC24002318460837BD4680BD80B54C
:101D080084B000AF7860084611461A460346FB7057
:101D18000B463B801346BB700023FB7297F90330D8
:101D2800002B0FDAFB7803F00F021346DB00134495
:101D38009B0038337A6813440433FB60FB68012244
:101D48005A700FE0FB7803F00F021346DB001344D0
:101D58009B0003F51E737A6813440433FB60FB6829
:101D680000225A70FB7803F00F03DAB2FB681A708E
:101D78003A88FB68DA60FB68BA781A71FB685B78A6
:101D8800002B04D0FB681B789AB2FB681A81BB78D9
:101D9800022B02D1FB6800225A717B6893F8BC348D
:101DA800012B01D102230EE07B68012283F8BC24B9
:101DB8007B681B68F968184603F0F2F97B68002213
:101DC80083F8BC24FB7A18461037BD4680BD80B521
:101DD80084B000AF78600B46FB7097F90330002B96
:101DE8000FDAFB7803F00F021346DB0013449B0065
:101DF80038337A6813440433FB60FB6801225A7055
:101E08000FE0FB7803F00F021346DB0013449B003E
:101E180003F51E737A6813440433FB60FB680022E1
:101E28005A70FB7803F00F03DAB2FB681A707B680C
:101E380093F8BC34012B01D102230EE07B68012208
:101E480083F8BC247B681B68F968184603F030FAED
:101E58007B68002283F8BC24002318461037BD464F
:101E680080BD80B586B000AFF8607A603B600B46F5
:101E7800FB72FB7A03F00F021346DB0013449B004E
:101E880003F51E73FA68134404337B617B697A682F
:101E98001A617B693A689A617B6900221A627B69D8
:101EA80000225A70FB7A03F00F03DAB27B691A70CA
:101EB800FB7A03F00F03002B06D1FB681B687969D6
:101EC800184603F0B1FC05E0FB681B687969184601
:101ED80003F0CAFA002318461837BD4680BD80B4FF
:101EE80083B000AF78600B46FB70FB7803F00F02FD
:101EF80079681346DB0013449B000B4403F52773F2
:101F08001B6818460C37BD465DF8047B704780B5E2
:101F180086B000AFF8607A603B600B46FB72FB7AD4
:101F280003F00F021346DB0013449B003833FA68B2
:101F3800134404337B617B697A681A617B693A6868
:101F48009A617B6900221A627B6901225A70FB7AC6
:101F580003F00F03DAB27B691A70FB7A03F00F0300
:101F6800002B06D1FB681B687969184603F05CFCF6
:101F780005E0FB681B687969184603F075FA0023C9
:101F880018461837BD4680BD80B584B000AF78606C
:101F98000B46FB70FB7803F00F027B685B689A4284
:101FA80001D901234EE097F90330002B0FDAFB78B3
:101FB80003F00F021346DB0013449B0038337A68A2
:101FC80013440433FB60FB6801225A700DE0FA7871
:101FD8001346DB0013449B0003F51E737A68134411
:101FE8000433FB60FB6800225A70FB6801229A7078
:101FF800FB7803F00F03DAB2FB681A707B6893F87A
:10200800BC34012B01D102231CE07B68012283F838
:10201800BC247B681B68F968184603F063FEFB78EC
:1020280003F00F03002B08D17B681A687B6803F262
:10203800C4431946104604F055F87B68002283F81B
:10204800BC24002318461037BD4680BD80B584B037
:1020580000AF78600B46FB70FB7803F00F027B68DB
:102068005B689A4201D9012342E097F90330002BBB
:102078000FDAFB7803F00F021346DB0013449B00D2
:1020880038337A6813440433FB60FB6801225A70C2
:102098000FE0FB7803F00F021346DB0013449B00AC
:1020A80003F51E737A6813440433FB60FB6800224F
:1020B8005A70FB6800229A70FB7803F00F03DAB2BB
:1020C800FB681A707B6893F8BC34012B01D102239A
:1020D8000EE07B68012283F8BC247B681B68F968E2
:1020E800184603F06DFE7B68002283F8BC240023A9
:1020F80018461037BD4680BD80B584B000AF786003
:102108000B46FB7097F90330002B0CDAFB7803F0D1
:102118000F021346DB0013449B0038337A681344DC
:102128000433FB600CE0FB7803F00F021346DB007E
:1021380013449B0003F51E737A6813440433FB6051
:102148007B681B68F968184603F090FC0346FB722D
:10215800FB7A18461037BD4680BD80B588B000AF01
:10216800786039607B681B687B617B693B613A6892
:102178001346DB0013449B0038337A681344043356
:10218800FB60FB681A6AFB689B699A4201D90123C4
:1021980067E0FB689A69FB681B6AD31AFB61FB68F6
:1021A800DB68FA699A4202D9FB68DB68FB61FB6964
:1021B80003339B08BB6126E0FB689A69FB681B6ACE
:1021C800D31AFB61FB68DB68FA699A4202D9FB689B
:1021D800DB68FB61FB6903339B08BB61FB6819691A
:1021E8003B68DAB2FB699BB2786903F0E9FCFB68EB
:1021F8001A69FB691A44FB681A61FB681A6AFB6969
:102208001A44FB681A623B685A013B69134403F598
:1022180010639B699BB2BA699A4209D8FB681A6A2B
:10222800FB689B699A4203D2FB689B69002BC3D168
:10223800FB689A69FB681B6A9A4211D83B6803F0ED
:102248000F03012202FA03F3BB603B6903F5006345
:102258005A6BBB68DB43396901F5006113404B6376
:10226800002318462037BD4680BD000080B586B0E3
:1022780000AF786039607B681B687B617B693B6174
:102288007B693C3304331B68FB603B685A013B693C
:10229800134403F530639B68BB60FB68194A93429B
:1022A80024D1BB6803F40043002B0AD03B685A01D1
:1022B8003B69134403F530631A464FF400439360B7
:1022C8001AE0BB6803F02003002B08D03B685A01D2
:1022D8003B69134403F530631A46202393603B6837
:1022E800DBB21946786806F09FFC05E03B68DBB274
:1022F8001946786806F098FC002318461837BD463A
:1023080080BD00BF0A31544F80B586B000AF7860F9
:1023180039607B681B687B617B693B617B693C3307
:1023280004331B68FB603B685A013B69134403F59F
:1023380030639B68BB60FB680C4A93420ED9BB684C
:1023480003F40043002B09D03B685A013B6913444E
:1023580003F530631A464FF400439360786806F03B
:1023680051FC002318461837BD4680BD0A30544F2B
:1023780080B485B000AF78600B46FB7013463B8095
:102388007B681B685B6ABB60FB78002B07D13B88C6
:1023980019047B681B68BA680A439A6228E07B685C
:1023A8001B689B6A1B0CBA681344BB600023FB7351
:1023B8000DE07B681A68FB7B40339B0013445B6825
:1023C8001B0CBA681344BB60FB7B0133FB73FA7BBD
:1023D800FB78013B9A42ECD33B8818047B68196868
:1023E800FB78013BBA68024340339B000B445A60B8
:1023F800002318461437BD465DF8047B704780B447
:1024080083B000AF78600B467B807B681B687A8856
:102418005A62002318460C37BD465DF8047B7047A6
:1024280080B485B000AF78607B681B68FB607B6810
:102438000122C3F800257B68002283F8F424FB6896
:102448009B6943F00062FB689A61FB685B6D43F02F
:10245800805343F00303FA68536500231846143782
:10246800BD465DF8047B704780B400AF044B1B6821
:1024780003F4C0631846BD465DF8047B704700BF8F
:102488000070004080B485B000AF78607B68B3F519
:10249800007F30D1234B1B6803F4C063B3F5007F82
:1024A80038D0204B1B6823F4C0631E4A43F40073E2
:1024B80013601D4B1B68322202FB03F31B4AA2FB6D
:1024C80003239B0C0133FB6002E0FB68013BFB60CC
:1024D800144B5B6903F48063B3F5806F02D1FB682A
:1024E800002BF2D10F4B5B6903F48063B3F5806F67
:1024F80010D103230FE00B4B1B6803F4C063B3F543
:10250800806F07D0074B1B6823F4C063054A43F468
:1025180080631360002318461437BD465DF8047BBA
:10252800704700BF007000400000002083DE1B439E
:1025380080B400AF054B5B68044A43F48063536082
:1025480000BFBD465DF8047B704700BF00700040C7
:1025580080B588B000AF78607B68002B01D101237B
:10256800CAE3974B9B6803F00C03BB61944BDB6891
:1025780003F003037B617B681B6803F01003002BE7
:1025880000F0E480BB69002B07D0BB690C2B40F03E
:102598008B807B69012B40F08780894B1B6803F097
:1025A8000203002B05D07B689B69002B01D1012316
:1025B800A2E37B681A6A824B1B6803F00803002BAE
:1025C80004D07F4B1B6803F0F00305E07C4BD3F885
:1025D80094301B0903F0F003934223D27B681B6AF3
:1025E800184600F087FD0346002B01D0012383E342
:1025F800734B1B68724A43F008031360704B1B68E7
:1026080023F0F0027B681B6A6D4913430B606C4B27
:102618005B6823F47F427B68DB691B0268491343CC
:102628004B6025E0664B1B68654A43F0080313605E
:10263800634B1B6823F0F0027B681B6A60491343F5
:102648000B605F4B5B6823F47F427B68DB691B028E
:102658005B4913434B60BB69002B09D17B681B6A3C
:10266800184600F047FD0346002B01D0012343E341
:1026780000F04AFC0246524B9B681B0903F00F030B
:102688005049CB5C03F01F0322FA03F34E4A136050
:102698004E4B1B681846FEF725F90346FB73FB7B78
:1026A800002B52D0FB7B27E37B689B69002B32D041
:1026B800434B1B68424A43F001031360FEF728FAB4
:1026C800386108E0FEF724FA02463B69D31A022B68
:1026D80001D9032310E33A4B1B6803F00203002BD4
:1026E800F0D0374B1B68364A43F008031360344B6D
:1026F8001B6823F0F0027B681B6A314913430B60A7
:102708002F4B5B6823F47F427B68DB691B022C49F3
:1027180013434B601AE02A4B1B68294A23F0010334
:102728001360FEF7F5F9386108E0FEF7F1F90246A3
:102738003B69D31A022B01D90323DDE2204B1B6826
:1027480003F00203002BF0D100E000BF7B681B6898
:1027580003F00103002B74D0BB69082B05D0BB69BB
:102768000C2B0ED17B69032B0BD1154B1B6803F483
:102778000033002B64D07B685B68002B60D1012399
:10278800BAE27B685B68B3F5803F06D10C4B1B68E7
:102798000B4A43F48033136026E07B685B68B3F52B
:1027A800A02F15D1064B1B68054A43F480231360FC
:1027B800034B1B68024A43F48033136014E000BFE4
:1027C80000100240189400080000002004000020B7
:1027D800A04B1B689F4A23F4803313609D4B1B68F2
:1027E8009C4A23F4802313607B685B68002B13D01A
:1027F800FEF78EF9386108E0FEF78AF902463B6970
:10280800D31A642B01D9032376E2924B1B6803F495
:102818000033002BF0D014E0FEF77AF9386108E0B5
:10282800FEF776F902463B69D31A642B01D90323D4
:1028380062E2884B1B6803F40033002BF0D100E000
:1028480000BF7B681B6803F00203002B60D0BB69E4
:10285800042B05D0BB690C2B19D17B69022B16D12F
:102868007C4B1B6803F48063002B05D07B68DB6816
:10287800002B01D101233FE2764B5B6823F0F8522D
:102888007B681B691B06734913434B6040E07B68F8
:10289800DB68002B23D06F4B1B686E4A43F48073B0
:1028A8001360FEF735F9386108E0FEF731F90246A2
:1028B8003B69D31A022B01D903231DE2654B1B6820
:1028C80003F48063002BF0D0624B5B6823F0F8526E
:1028D8007B681B691B065F4913434B6018E05D4B1F
:1028E8001B685C4A23F480731360FEF711F93861A2
:1028F80008E0FEF70DF902463B69D31A022B01D90D
:102908000323F9E1534B1B6803F48063002BF0D1D8
:102918007B681B6803F00803002B3CD07B685B696D
:10292800002B1CD04B4BD3F894304A4A43F0010398
:10293800C2F89430FEF7ECF8386108E0FEF7E8F8E2
:1029480002463B69D31A022B01D90323D4E1414B38
:10295800D3F8943003F00203002BEFD01BE03D4B7B
:10296800D3F894303B4A23F00103C2F89430FEF7C1
:10297800CFF8386108E0FEF7CBF802463B69D31A76
:10298800022B01D90323B7E1324BD3F8943003F07B
:102998000203002BEFD17B681B6803F00403002BB4
:1029A80000F0A6800023FB772A4B9B6D03F0805331
:1029B800002B0DD1274B9B6D264A43F0805393651E
:1029C800244B9B6D03F08053BB60BB680123FB77EE
:1029D800214B1B6803F48073002B18D11E4B1B6816
:1029E8001D4A43F480731360FEF792F8386108E0DB
:1029F800FEF78EF802463B69D31A022B01D903234E
:102A08007AE1154B1B6803F48073002BF0D07B68C8
:102A18009B68012B08D10F4BD3F890300D4A43F037
:102A28000103C2F8903029E07B689B68052B15D11B
:102A3800084BD3F89030074A43F00403C2F89030AB
:102A4800044BD3F89030034A43F00103C2F89030A6
:102A580014E000BF00100240007000409C4BD3F807
:102A680090309B4A23F00103C2F89030984BD3F87A
:102A78009030974A23F00403C2F890307B689B6833
:102A8800002B16D0FEF744F838610AE0FEF740F84C
:102A980002463B69D31A41F28832934201D9032393
:102AA8002AE18B4BD3F8903003F00203002BEDD0D2
:102AB80015E0FEF72DF838610AE0FEF729F802461E
:102AC8003B69D31A41F28832934201D9032313E1B7
:102AD8007F4BD3F8903003F00203002BEDD1FB7F3E
:102AE800012B05D17A4B9B6D794A23F0805393656E
:102AF8007B689B6A002B00F0FE807B689B6A022B38
:102B080040F0D080724BDB687B617B6903F0030285
:102B18007B68DB6A9A4230D17B6903F070027B687C
:102B28001B6B013B1B019A4227D17B6903F4FE42D0
:102B38007B685B6B1B029A421FD17B6903F40033ED
:102B48007A68926B072A14BF01220022D2B29342FC
:102B580013D17B6903F4C0027B68DB6B5B08013B24
:102B68005B059A4209D17B6903F0C0627B681B6CE4
:102B78005B08013B5B069A426ED0BB690C2B69D09F
:102B8800534B1B6803F08063002B05D1504B1B6827
:102B980003F08053002B01D00123ADE04C4B1B68A0
:102BA8004B4A23F080731360FDF7B2FF386108E0E9
:102BB800FDF7AEFF02463B69D31A022B01D9032366
:102BC8009AE0434B1B6803F00073002BF0D1404B95
:102BD800DA68404B13407A68D16A7A68126B013A16
:102BE800120111437A68526B120211437A68D26B50
:102BF8005208013A520511437A68126C5208013A98
:102C0800520611437A68926B120952040A433049FA
:102C18001343CB602E4B1B682D4A43F0807313601F
:102C28002B4BDB682A4A43F08073D360FDF770FFB3
:102C3800386108E0FDF76CFF02463B69D31A022BA6
:102C480001D9032358E0224B1B6803F00073002BC3
:102C5800F0D050E001234FE01D4B1B6803F00073D8
:102C6800002B48D11A4B1B68194A43F08073136034
:102C7800174BDB68164A43F08073D360FDF748FFB3
:102C8800386108E0FDF744FF02463B69D31A022B7E
:102C980001D9032330E00E4B1B6803F00073002BAF
:102CA800F0D028E0BB690C2B23D0094B1B68084ADD
:102CB80023F080731360FDF72BFF38610CE0FDF7FC
:102CC80027FF02463B69D31A022B05D9032313E0D9
:102CD800001002408C809DF9094B1B6803F00073BB
:102CE800002BECD1064BDA680549064B1340CB6044
:102CF80001E0012300E0002318462037BD4680BDCF
:102D080000100240FCFFEEFE80B584B000AF786092
:102D180039607B68002B01D10123E7E0754B1B6804
:102D280003F007033A689A4210D9724B1B6823F0E4
:102D3800070270493B6813430B606E4B1B6803F036
:102D480007033A689A4201D00123CFE07B681B68E9
:102D580003F00203002B10D07B689A68664B9B68CF
:102D680003F0F0039A4208D9634B9B6823F0F00202
:102D78007B689B68604913438B607B681B6803F022
:102D88000103002B4CD07B685B68032B07D15A4B9F
:102D98001B6803F00073002B21D10123A6E07B6898
:102DA8005B68022B07D1544B1B6803F40033002BDC
:102DB80015D101239AE07B685B68002B07D14E4B45
:102DC8001B6803F00203002B09D101238EE04A4B54
:102DD8001B6803F48063002B01D1012386E0464B76
:102DE8009B6823F003027B685B68434913438B604D
:102DF800FDF78EFEF8600AE0FDF78AFE0246FB68E2
:102E0800D31A41F28832934201D903236EE03A4B38
:102E18009B6803F00C027B685B689B009A42EBD1CD
:102E28007B681B6803F00203002B10D07B689A684C
:102E3800314B9B6803F0F0039A4208D22E4B9B68F3
:102E480023F0F0027B689B682B4913438B60294B66
:102E58001B6803F007033A689A4210D2254B1B6897
:102E680023F0070223493B6813430B60214B1B687F
:102E780003F007033A689A4201D0012336E07B68E1
:102E88001B6803F00403002B08D01B4B9B6823F43A
:102E9800E0627B68DB68184913438B607B681B68BA
:102EA80003F00803002B09D0134B9B6823F46052EE
:102EB8007B681B69DB00104913438B6000F024F822
:102EC80002460D4B9B681B0903F00F030B49CB5CB3
:102ED80003F01F0322FA03F3094A1360094B1B6826
:102EE8001846FDF7FFFC0346FB72FB7A18461037BD
:102EF800BD4680BD00200240001002401894000822
:102F0800000000200400002080B489B000AF002336
:102F1800FB610023BB613E4B9B6803F00C033B61E4
:102F28003B4BDB6803F00303FB603B69002B05D0D8
:102F38003B690C2B21D1FB68012B1ED1344B1B683C
:102F480003F00803002B07D1314BD3F894301B0A48
:102F580003F00F03FB6105E02D4B1B681B0903F011
:102F68000F03FB612B4AFB6952F82330FB613B6975
:102F7800002B0DD1FB69BB610AE03B69042B02D130
:102F8800254BBB6104E03B69082B01D1234BBB6196
:102F98003B690C2B34D11E4BDB6803F00303BB6089
:102FA800BB68022B03D0BB68032B03D005E01A4B88
:102FB8007B6105E0194B7B6102E0FB697B6100BF27
:102FC800134BDB681B0903F0070301337B60104BCD
:102FD800DB681B0A03F07F037A6903FB02F27B6854
:102FE800B2FBF3F37B610A4BDB685B0E03F0030370
:102FF80001335B003B607A693B68B2FBF3F3BB616A
:10300800BB6918462437BD465DF8047B704700BF8E
:1030180000100240309400080024F40000127A00E6
:1030280080B400AF034B1B681846BD465DF8047BAF
:10303800704700BF0000002080B500AFFFF7F0FF29
:103048000246064B9B681B0A03F007030449CB5C46
:1030580003F01F0322FA03F3184680BD0010024054
:103068002894000880B500AFFFF7DAFF0246064B48
:103078009B68DB0A03F007030449CB5C03F01F03DA
:1030880022FA03F3184680BD001002402894000875
:1030980080B483B000AF786039607B680F221A6013
:1030A800124B9B6803F003027B685A600F4B9B68C6
:1030B80003F0F0027B689A600C4B9B6803F4E062B3
:1030C8007B68DA60094B9B68DB0803F4E0627B6885
:1030D8001A61074B1B6803F007023B681A6000BFC0
:1030E8000C37BD465DF8047B704700BF00100240F6
:1030F8000020024080B586B000AF786000233B61B5
:103108002A4B9B6D03F08053002B03D0FFF7ACF9DB
:10311800786114E0254B9B6D244A43F080539365F6
:10312800224B9B6D03F08053FB60FB68FFF79CF913
:1031380078611E4B9B6D1D4A23F0805393657B6914
:10314800B3F5007F0BD17B68802B19D97B68A02B46
:1031580002D902233B6113E001233B6110E07B6845
:10316800802B02D903233B610AE07B68802B02D1C4
:1031780002233B6104E07B68702B01D101233B6192
:103188000B4B1B6823F0070209493B6913430B608B
:10319800074B1B6803F007033A699A4201D00123E1
:1031A80000E0002318461837BD4680BD00100240D5
:1031B8000020024080B586B000AF78600023FB7421
:1031C8000023BB747B681B6803F40063002B41D0A9
:1031D8007B685B6EB3F5400F2AD0B3F5400F24D857
:1031E800B3F5000F08D0B3F5000F1ED8002B0AD096
:1031F800B3F5800F10D018E0864BDB68854A43F49E
:103208008033D36015E07B6804330021184600F052
:10321800BBFA0346FB740CE07B6820330021184698
:1032280000F0A6FB0346FB7403E00123FB7400E0F7
:1032380000BFFB7C002B0BD1764BD3F8883023F4EE
:1032480040027B685B6E73491343C1F8883001E024
:10325800FB7CBB747B681B6803F48053002B41D054
:103268007B689B6EB3F1407F2AD0B3F1407F24D8AE
:10327800B3F1007F08D0B3F1007F1ED8002B0AD02D
:10328800B3F1807F10D018E0624BDB68614A43F4E9
:103298008033D36015E07B6804330021184600F0C2
:1032A80073FA0346FB740CE07B6820330021184650
:1032B80000F05EFB0346FB7403E00123FB7400E0AF
:1032C80000BFFB7C002B0BD1524BD3F8883023F086
:1032D80040727B689B6E4F491343C1F8883001E008
:1032E800FB7CBB747B681B6803F40033002B00F085
:1032F800A08000237B74474B9B6D03F08053002B09
:1033080001D1012300E00023002B0DD0414B9B6D20
:10331800404A43F0805393653E4B9B6D03F08053C6
:10332800BB60BB6801237B743B4B1B683A4A43F480
:1033380080731360FDF7ECFBF86009E0FDF7E8FB2C
:103348000246FB68D31A022B02D90323FB7405E05B
:10335800314B1B6803F48073002BEFD0FB7C002BF0
:103368005CD12C4BD3F8903003F440737B617B69BC
:10337800002B1FD07B68D3F884307A699A4219D021
:10338800244BD3F8903023F440737B61214BD3F85E
:103398009030204A43F48033C2F890301D4BD3F864
:1033A80090301C4A23F48033C2F89030194A7B6964
:1033B800C2F890307B6903F00103002B16D0FDF7AB
:1033C800A7FBF8600BE0FDF7A3FB0246FB68D31AE6
:1033D80041F28832934202D90323FB7406E00D4B75
:1033E800D3F8903003F00203002BECD0FB7C002BC9
:1033F8000CD1084BD3F8903023F440727B68D3F893
:10340800843004491343C1F8903009E0FB7CBB7455
:1034180006E000BF0010024000700040FB7CBB7457
:103428007B7C012B05D19E4B9B6D9D4A23F08053DD
:1034380093657B681B6803F00103002B0AD0984B47
:10344800D3F8883023F003027B689B6B94491343BD
:10345800C1F888307B681B6803F00203002B0AD090
:103468008F4BD3F8883023F00C027B68DB6B8C49D8
:103478001343C1F888307B681B6803F00403002BF2
:103488000AD0874BD3F8883023F030027B681B6C56
:1034980083491343C1F888307B681B6803F008032D
:1034A800002B0AD07E4BD3F8883023F0C0027B680B
:1034B8005B6C7B491343C1F888307B681B6803F059
:1034C8001003002B0AD0764BD3F8883023F44072CF
:1034D8007B689B6C72491343C1F888307B681B6812
:1034E80003F02003002B0AD06D4BD3F8883023F467
:1034F80040627B68DB6C6A491343C1F888307B689B
:103508001B6803F40073002B0AD0654BD3F888308E
:1035180023F440227B68DB6D61491343C1F888308E
:103528007B681B6803F48063002B0AD05C4BD3F8DC
:10353800883023F440127B681B6E59491343C1F845
:1035480088307B681B6803F04003002B0AD0544B7B
:10355800D3F8883023F440527B681B6D50491343DD
:10356800C1F888307B681B6803F08003002B0AD001
:103578004B4BD3F8883023F440427B685B6D484955
:103588001343C1F888307B681B6803F48073002BF1
:103598000AD0434BD3F8883023F440327B689B6DC4
:1035A8003F491343C1F888307B681B6803F4005314
:1035B800002B28D03A4BD3F8883023F040627B6840
:1035C800DB6E37491343C1F888307B68DB6EB3F193
:1035D800006F06D1324BDB68314A43F48013D36065
:1035E80011E07B68DB6EB3F1806F0CD17B6804332C
:1035F8000121184600F0C8F80346FB74FB7C002B39
:1036080001D0FB7CBB747B681B6803F40023002B90
:1036180028D0234BD3F8883023F040627B681B6F97
:103628001F491343C1F888307B681B6FB3F1006FE3
:1036380006D11B4BDB681A4A43F48013D36011E0B0
:103648007B681B6FB3F1806F0CD17B680433012159
:10365800184600F099F80346FB74FB7C002B01D058
:10366800FB7CBB747B681B6803F48023002B2BD086
:103678000B4BD3F8883023F040627B685B6F0849B6
:103688001343C1F888307B685B6FB3F1006F09D1D1
:10369800034BDB68024A43F48013D36014E000BF95
:1036A800001002407B685B6FB3F1806F0CD17B68C0
:1036B80004330121184600F067F80346FB74FB7CCD
:1036C800002B01D0FB7CBB747B681B6803F4804330
:1036D800002B2FD02B4BD3F8883023F040527B6837
:1036E8009B6F28491343C1F888307B689B6FB3F1FF
:1036F800805F0DD17B6804330221184600F044F83E
:103708000346FB74FB7C002B14D0FB7CBB7411E0DC
:103718007B689B6FB3F1005F0CD17B68203302217B
:10372800184600F025F90346FB74FB7C002B01D0FA
:10373800FB7CBB747B681B6803F40043002B0AD036
:10374800104BD3F8883023F080427B68DB6F0D493B
:103758001343C1F888307B681B6803F48033002B5F
:103768000BD0084BD3F8883023F000427B68D3F89D
:10377800803004491343C1F88830BB7C1846183799
:10378800BD4680BD0010024080B584B000AF7860AF
:1037980039600023FB73754BDB6803F00303002BD0
:1037A80018D0724BDB6803F003027B681B689A42EF
:1037B8000DD17B681B68002B09D06C4BDB681B099B
:1037C80003F007035A1C7B685B689A4247D00123C1
:1037D800FB7344E07B681B68032B18D0032B25D8A8
:1037E800012B02D0022B09D020E0604B1B6803F0AC
:1037F8000203002B1DD10123FB731AE05B4B1B68EE
:1038080003F48063002B16D10123FB7313E0574B9D
:103818001B6803F40033002B0FD1544B1B6803F4CF
:103828008023002B09D10123FB7306E00123FB73DE
:1038380004E000BF02E000BF00E000BFFB7B002BFC
:103848000DD14A4BDB6823F073027B6819687B68EB
:103858005B68013B1B010B4344491343CB60FB7B73
:10386800002B7DD1414B1B68404A23F080631360D5
:10387800FDF74EF9B86009E0FDF74AF90246BB6862
:10388800D31A022B02D90323FB7305E0374B1B68BD
:1038980003F00063002BEFD1FB7B002B60D13B686A
:1038A800002B11D1314B1B6923F41F3323F44073D0
:1038B8007A68926811027A68D268120952040A4337
:1038C8002A4913430B6127E03B68012B12D1274B90
:1038D8001B6923F4C00323F4FE437A68926811023B
:1038E8007A6812695208013A52050A431F4913437C
:1038F8000B6111E01D4B1B6923F0C06323F4FE43E9
:103908007A68926811027A6852695208013A520636
:103918000A43164913430B61144B1B68134A43F0BF
:1039280080631360FDF7F4F8B86009E0FDF7F0F87C
:103938000246BB68D31A022B02D90323FB7305E0A6
:103948000A4B1B6803F00063002BEFD0FB7B002BB6
:1039580006D1064B1A697B689B69044913430B61BE
:10396800FB7B18461037BD4680BD00BF00100240E3
:1039780080B584B000AF786039600023FB736A4B70
:10398800DB6803F00303002B18D0674BDB6803F0F8
:1039980003027B681B689A420DD17B681B68002B69
:1039A80009D0614BDB681B0903F007035A1C7B68CD
:1039B8005B689A4247D00123FB7344E07B681B682D
:1039C800032B18D0032B25D8012B02D0022B09D0AA
:1039D80020E0554B1B6803F00203002B1DD1012387
:1039E800FB731AE0504B1B6803F48063002B16D15D
:1039F8000123FB7313E04C4B1B6803F40033002BCB
:103A08000FD1494B1B6803F48023002B09D10123F4
:103A1800FB7306E00123FB7304E000BF02E000BF74
:103A280000E000BFFB7B002B0DD13F4BDB6823F090
:103A380073027B6819687B685B68013B1B010B4359
:103A480039491343CB60FB7B002B67D1364B1B688E
:103A5800354A23F080531360FDF75AF8B86009E03F
:103A6800FDF756F80246BB68D31A022B02D9032386
:103A7800FB7305E02C4B1B6803F00053002BEFD1C0
:103A8800FB7B002B4AD13B68002B11D1264B5B698D
:103A980023F41F3323F440737A68926811027A681A
:103AA800D268120952040A431F4913434B6111E0BB
:103AB8001D4B5B6923F0C06323F4FE437A68926868
:103AC80011027A6812695208013A52060A431649E5
:103AD80013434B61144B1B68134A43F08053136024
:103AE800FDF716F8B86009E0FDF712F80246BB6862
:103AF800D31A022B02D90323FB7305E00A4B1B6878
:103B080003F00053002BEFD0FB7B002B06D1064BB4
:103B18005A697B685B69044913434B61FB7B184610
:103B28001037BD4680BD00BF0010024080B582B08E
:103B380000AF78607B68002B01D1012349E07B68E6
:103B480093F83D30DBB2002B06D17B68002283F866
:103B58003C20786800F041F87B68022283F83D2019
:103B68007B681A687B6804331946104600F0F8F938
:103B78007B68012283F848207B68012283F83E2075
:103B88007B68012283F83F207B68012283F840206C
:103B98007B68012283F841207B68012283F8422058
:103BA8007B68012283F843207B68012283F8442044
:103BB8007B68012283F845207B68012283F8462030
:103BC8007B68012283F847207B68012283F83D2027
:103BD800002318460837BD4680BD80B483B000AFC7
:103BE800786000BF0C37BD465DF8047B7047000065
:103BF80080B485B000AF78607B6893F83D30DBB265
:103C0800012B01D001234FE07B68022283F83D207D
:103C18007B681B68DA687B681B6842F00102DA601F
:103C28007B681B68234A93421DD07B681B68B3F1ED
:103C3800804F18D07B681B681F4A934213D07B685B
:103C48001B681E4A93420ED07B681B681C4A93422D
:103C580009D07B681B681B4A934204D07B681B68A9
:103C6800194A934215D17B681B689A68174B134011
:103C7800FB60FB68062B15D0FB68B3F5803F11D0BD
:103C88007B681B681A687B681B6842F001021A602F
:103C980008E07B681B681A687B681B6842F00102B1
:103CA8001A6000E000BF002318461437BD465DF8CF
:103CB800047B7047002C01400004004000080040CD
:103CC800000C0040003401400040014007000100A2
:103CD80080B582B000AF78607B681B681B6903F011
:103CE8000203022B22D17B681B68DB6803F0020306
:103CF800022B1BD17B681B686FF002021A617B687C
:103D080001221A777B681B689B6903F00303002B69
:103D180003D0786800F005F905E0786800F0F7F856
:103D2800786800F008F97B6800221A777B681B68BE
:103D38001B6903F00403042B22D17B681B68DB6832
:103D480003F00403042B1BD17B681B686FF004028B
:103D58001A617B6802221A777B681B689B6903F4E7
:103D68004073002B03D0786800F0DBF805E0786832
:103D780000F0CDF8786800F0DEF87B6800221A774A
:103D88007B681B681B6903F00803082B22D17B683A
:103D98001B68DB6803F00803082B1BD17B681B68D2
:103DA8006FF008021A617B6804221A777B681B6827
:103DB800DB6903F00303002B03D0786800F0B1F847
:103DC80005E0786800F0A3F8786800F0B4F87B683C
:103DD80000221A777B681B681B6903F01003102BFD
:103DE80022D17B681B68DB6803F01003102B1BD102
:103DF8007B681B686FF010021A617B6808221A77CB
:103E08007B681B68DB6903F44073002B03D0786878
:103E180000F087F805E0786800F079F8786800F035
:103E28008AF87B6800221A777B681B681B6903F095
:103E38000103012B0ED17B681B68DB6803F00103CB
:103E4800012B07D17B681B686FF001021A61786843
:103E5800FCF7B0FC7B681B681B6903F08003802BB0
:103E68000ED17B681B68DB6803F08003802B07D1C9
:103E78007B681B686FF080021A61786800F014F99B
:103E88007B681B681B6903F48073B3F5807F0ED1D0
:103E98007B681B68DB6803F08003802B07D17B6895
:103EA8001B686FF480721A61786800F007F97B6804
:103EB8001B681B6903F04003402B0ED17B681B680D
:103EC800DB6803F04003402B07D17B681B686FF069
:103ED80040021A61786800F038F87B681B681B6933
:103EE80003F02003202B0ED17B681B68DB6803F0EE
:103EF8002003202B07D17B681B686FF020021A6112
:103F0800786800F0C7F800BF0837BD4680BD80B4A8
:103F180083B000AF786000BF0C37BD465DF8047B06
:103F2800704780B483B000AF786000BF0C37BD46DF
:103F38005DF8047B704780B483B000AF786000BF41
:103F48000C37BD465DF8047B704780B483B000AF82
:103F5800786000BF0C37BD465DF8047B70470000F1
:103F680080B485B000AF786039607B681B68FB60FF
:103F78007B68404A934213D07B68B3F1804F0FD0DF
:103F88007B683D4A93420BD07B683C4A934207D0FA
:103F98007B683B4A934203D07B683A4A934208D1F4
:103FA800FB6823F07003FB603B685B68FA681343A7
:103FB800FB607B682F4A93421FD07B68B3F1804F28
:103FC8001BD07B682C4A934217D07B682B4A9342BC
:103FD80013D07B682A4A93420FD07B68294A9342C0
:103FE8000BD07B68284A934207D07B68274A9342C4
:103FF80003D07B68264A934208D1FB6823F44073B8
:10400800FB603B68DB68FA681343FB60FB6823F0DE
:1040180080023B685B691343FB607B68FA681A603F
:104028003B689A687B68DA623B681A687B689A62C0
:104038007B68104A93420FD07B68124A93420BD098
:104048007B68114A934207D07B68104A934203D099
:104058007B680F4A934203D13B681A697B681A63ED
:104068007B6801225A6100BF1437BD465DF8047BA6
:10407800704700BF002C01400004004000080040C9
:10408800000C004000340140004001400044014061
:104098000048014080B483B000AF786000BF0C379F
:1040A800BD465DF8047B704780B483B000AF78608C
:1040B80000BF0C37BD465DF8047B704780B483B001
:1040C80000AF786000BF0C37BD465DF8047B7047D1
:1040D80080B582B000AF78607B68002B01D10123E6
:1040E80040E07B689B6F002B06D17B68002283F839
:1040F80074207868FCF79AFB7B6824229A677B68AF
:104108001B681A687B681B6822F001021A607868CD
:1041180000F0C0F80346012B01D1012322E07B689F
:104128005B6A002B02D0786800F06CFB7B681B6828
:104138005A687B681B6822F490425A607B681B6847
:104148009A687B681B6822F02A029A607B681B6861
:104158001A687B681B6842F001021A60786800F0F0
:10416800F3FB034618460837BD4680BD80B58AB0C4
:1041780002AFF860B9603B601346FB80FB689B6F39
:10418800202B40F08280BB68002B02D0FB88002BDC
:1041980001D101237AE0FB6893F87430012B01D137
:1041A800022373E0FB68012283F87420FB68002275
:1041B800C3F88020FB6821229A67FCF7A9FC786184
:1041C800FB68FA88A3F85020FB68FA88A3F8522005
:1041D800FB689B68B3F5805F08D1FB681B69002BFF
:1041E80004D10023FB61BB68BB6103E0BB68FB61D2
:1041F8000023BB61FB68002283F874202DE03B6834
:1042080000937B6900228021F86800F0E6FB0346F2
:10421800002B01D0032339E0FB69002B0BD1BB69CC
:104228001A88FB681B68C2F3080292B21A85BB6938
:104238000233BB6108E0FB691A78FB681B6892B21D
:104248001A85FB690133FB61FB68B3F852309BB2F6
:10425800013B9AB2FB68A3F85220FB68B3F85230CE
:104268009BB2002BCBD13B6800937B690022402195
:10427800F86800F0B2FB0346002B01D0032305E0E9
:10428800FB6820229A67002300E0022318462037A3
:10429800BD4680BD2DE9B04F8AB000AFF86000235D
:1042A80087F82230FB689A68FB681B691A43FB6829
:1042B8005B691A43FB68DB6913437B62FB681B6815
:1042C8001A68A44B1340FA681268796A0B431360A2
:1042D800FB681B685B6823F44051FB68DA68FB687D
:1042E8001B680A435A60FB689B697B62FB681B6812
:1042F800994A934204D0FB681B6A7A6A13437B622B
:10430800FB681B689B6823F43061FB681B687A6A4A
:104318000A439A60FB681B68904A934226D1904BE7
:10432800D3F8883003F00303032B1BD801A252F8FB
:1043380023F000BF4D4300085D43000855430008C3
:1043480065430008012387F8233016E1022387F824
:10435800233012E1042387F823300EE1082387F87D
:1043680023300AE1102387F8233006E1FB681B6835
:104378007C4A934238D17A4BD3F8883003F00C0347
:104388000C2B2DD801A252F823F000BFC943000816
:10439800E9430008E9430008E9430008D943000855
:1043A800E9430008E9430008E9430008D14300084D
:1043B800E9430008E9430008E9430008E14300082D
:1043C800002387F82330D8E0022387F82330D4E08D
:1043D800042387F82330D0E0082387F82330CCE083
:1043E800102387F82330C8E0FB681B685E4A9342B5
:1043F80025D15B4BD3F8883003F03003302B16D02F
:10440800302B18D8202B0AD0202B14D8002B02D000
:10441800102B08D00FE0002387F82330ADE00223EB
:1044280087F82330A9E0042387F82330A5E0082380
:1044380087F82330A1E0102387F823309DE0FB683C
:104448001B684A4A934225D1454BD3F8883003F07C
:10445800C003C02B16D0C02B18D8802B0AD0802BB5
:1044680014D8002B02D0402B08D00FE0002387F887
:10447800233082E0022387F823307EE0042387F884
:1044880023307AE0082387F8233076E0102387F872
:10449800233072E0FB681B68354A93422AD1304BBF
:1044A800D3F8883003F44073B3F5407F1AD0B3F5DE
:1044B800407F1BD8B3F5007F0CD0B3F5007F15D82B
:1044C800002B03D0B3F5807F08D00FE0002387F8D6
:1044D800233052E0022387F823304EE0042387F884
:1044E80023304AE0082387F8233046E0102387F872
:1044F800233042E0FB681B68174A93423AD1184BB5
:10450800D3F8883003F44063B3F5406F1AD0B3F59D
:10451800406F1BD8B3F5006F0CD0B3F5006F15D8FA
:10452800002B03D0B3F5806F08D00FE0002387F885
:10453800233022E0022387F823301EE0042387F883
:1045480023301AE0082387F8233016E0102387F871
:10455800233012E0F369FFEF00800040003801408B
:10456800001002400044004000480040004C004059
:1045780000500040102387F82330FB681B689F4ACF
:1045880093427AD197F82330082B24D801A252F805
:1045980023F000BFC1450008DF450008C9450008F1
:1045A800DF450008CF450008DF450008DF45000863
:1045B800DF450008D7450008FEF73EFDF86110E02A
:1045C8008F4BFB610DE0FEF79FFCF86109E04FF4AB
:1045D8000043FB6105E00023FB61012387F82230DB
:1045E80000BFFB69002B00F0FB80FB685A6813468C
:1045F8005B001344FA699A4205D3FB685B681B03A6
:10460800FA699A4203D9012387F82230E8E0FB6966
:1046180000221C4615464FF000024FF000032B0203
:1046280043EA14632202F968496849080020884669
:10463800814612EB080A43EB090BFB685B68002212
:104648003B607A60D7E9002350465946FBF7B8FD2E
:1046580002460B461346BB61BB69B3F5407F08D3DE
:10466800BB69B3F5801F04D2FB681B68BA69DA60BE
:10467800B6E0012387F82230B2E0FB68DB69B3F5C6
:10468800004F5ED197F82330082B28D801A252F8A2
:1046980023F000BFC1460008C9460008D1460008FB
:1046A800E7460008D7460008E7460008E74600083E
:1046B800E7460008DF460008FEF7BEFCF86114E094
:1046C800FEF7D0FCF86110E04D4BFB610DE0FEF702
:1046D8001BFCF86109E04FF40043FB6105E000238F
:1046E800FB61012387F8223000BFFB69002B77D0DC
:1046F800FB695A00FB685B685B081A44FB685B68E7
:10470800B2FBF3F3BB61BB690F2B16D9BB69B3F5D9
:10471800803F12D2BB699BB223F00F03FB82BB69B7
:104728005B089BB203F007039AB2FB8A1343FB8230
:10473800FB681B68FA8ADA6052E0012387F82230A6
:104748004EE097F82330082B27D801A252F823F01F
:104758007D470008854700088D470008A3470008E3
:1047680093470008A3470008A3470008A347000889
:104778009B470008FEF760FCF86114E0FEF772FC46
:10478800F86110E01E4BFB610DE0FEF7BDFBF86120
:1047980009E04FF40043FB6105E00023FB610123BE
:1047A80087F8223000BFFB69002B19D0FB685B68D3
:1047B8005A08FB691A44FB685B68B2FBF3F3BB61F8
:1047C800BB690F2B09D9BB69B3F5803F05D2BB691B
:1047D8009AB2FB681B68DA6002E0012387F822308E
:1047E800FB6800225A66FB6800229A6697F8223016
:1047F80018462837BD46BDE8B08F00BF008000408E
:104808000024F40080B483B000AF78607B685B6AF2
:1048180003F00103002B0AD07B681B685B6823F454
:1048280000317B689A6A7B681B680A435A607B6818
:104838005B6A03F00203002B0AD07B681B685B6885
:1048480023F480317B68DA6A7B681B680A435A6004
:104858007B685B6A03F00403002B0AD07B681B6843
:104868005B6823F480217B681A6B7B681B680A43AA
:104878005A607B685B6A03F00803002B0AD07B68E8
:104888001B685B6823F400417B685A6B7B681B6874
:104898000A435A607B685B6A03F01003002B0AD056
:1048A8007B681B689B6823F480517B689A6B7B68E4
:1048B8001B680A439A607B685B6A03F02003002B3D
:1048C8000AD07B681B689B6823F400517B68DA6B0D
:1048D8007B681B680A439A607B685B6A03F0400345
:1048E800002B1AD07B681B685B6823F480117B68F7
:1048F8001A6C7B681B680A435A607B681B6CB3F5AB
:10490800801F0AD17B681B685B6823F4C0017B6841
:104918005A6C7B681B680A435A607B685B6A03F0C1
:104928008003002B0AD07B681B685B6823F4002196
:104938007B689A6C7B681B680A435A6000BF0C3717
:10494800BD465DF8047B704780B586B002AF7860DD
:104958007B680022C3F88020FCF7DAF8F8607B68EF
:104968001B681B6803F00803082B0ED16FF07E4309
:104978000093FB6800224FF40011786800F02DF8CE
:104988000346002B01D0032323E07B681B681B68C8
:1049980003F00403042B0ED16FF07E430093FB68F1
:1049A80000224FF48001786800F017F80346002BC6
:1049B80001D003230DE07B6820229A677B682022C0
:1049C800DA677B6800221A667B68002283F8742005
:1049D800002318461037BD4680BD80B59CB000AF97
:1049E800F860B9603B601346FB71A5E0BB6FB3F19B
:1049F800FF3F00F0A180FCF78BF802463B68D31A12
:104A0800BA6F9A4202D3BB6F002B3ED1FB681B687A
:104A18003B653B6D53E8003FFB64FB6C23F4D073AC
:104A28007B66FB681B681A467B6EFB65BA65B96DC9
:104A3800FA6D41E800237B657B6D002BE6D1FB68AE
:104A48001B680833FB63FB6B53E8003FBB63BB6B1E
:104A580023F001033B66FB681B6808333A6EBA64AF
:104A68007B64796CBA6C41E800233B643B6C002B97
:104A7800E5D1FB6820229A67FB682022DA67FB6889
:104A8800002283F87420032367E0FB681B681B6817
:104A980003F00403002B4FD0FB681B68DB6903F4A9
:104AA8000063B3F5006F47D1FB681B684FF40062E1
:104AB8001A62FB681B68BB62BB6A53E8003F7B62F3
:104AC8007B6A23F4D073FB66FB681B681A46FB6E8F
:104AD8007B633A63396B7A6B41E80023FB62FB6ABC
:104AE800002BE6D1FB681B6808337B617B6953E8C0
:104AF800003F3B613B6923F00103BB66FB681B6811
:104B08000833BA6E3A62FB61F9693A6A41E80023F0
:104B1800BB61BB69002BE5D1FB6820229A67FB6863
:104B28002022DA67FB682022C3F88020FB68002275
:104B380083F87420032310E0FB681B68DA69BB68FC
:104B48001340BA689A420CBF01230023DBB21A460D
:104B5800FB799A423FF44AAF002318467037BD46A6
:104B680080BD84B080B584B000AF786007F11C00C8
:104B780080E80E007B68DB6843F040027B68DA60FF
:104B8800786801F0F7FA0346FB733B6C002B06D1FB
:104B98007B689B6B43F480327B689A6305E07B6893
:104BA8009B6B23F480327B689A63FB7B1846103733
:104BB800BD46BDE8804004B07047000080B487B0AF
:104BC80000AFF860B9601346FB71FB79022B65D121
:104BD800BB683E4A934206D9BB683D4A934202D21B
:104BE8000F237B615CE0BB68394A934206D3BB68FC
:104BF800384A934202D20E237B6151E0BB68354AA2
:104C0800934206D3BB68344A934202D20D237B6198
:104C180046E0BB68304A934206D3BB682F4A9342AA
:104C280002D80C237B613BE0BB682C4A934206D92F
:104C3800BB682B4A934202D80B237B6130E0BB68E8
:104C4800274A934206D9BB68264A934202D80A23C8
:104C58007B6125E0BB68234A934206D9BB68224A98
:104C6800934202D209237B611AE0BB681E4A934231
:104C780006D3BB681D4A934202D808237B610FE024
:104C8800BB681A4A934206D9BB68194A934202D2B2
:104C980007237B6104E006237B6101E009237B6134
:104CA800FB68DB6823F47052FB68DA60FB68DA683B
:104CB8007B699B0203F470531A43FB68DA60002394
:104CC80018461C37BD465DF8047B7047BFACD8005A
:104CD800C0E1E4000024F400807306019F491A0132
:104CE800FF2C31013FA44C0100366E011FABA60119
:104CF8000048E80180B483B000AF78607B689B68A7
:104D080043F001027B689A60002318460C37BD46C1
:104D18005DF8047B704780B483B000AF78607B682F
:104D28009B6823F001027B689A60002318460C37C1
:104D3800BD465DF8047B704780B584B000AF7860ED
:104D48000B46FB700023FB607B68DB6823F0C042E6
:104D58007B68DA60FB78012B15D17B68DB6843F050
:104D680000527B68DA600120FBF7DEFEFB68013346
:104D7800FB60786801F085F90346012B1ED0FB68BB
:104D8800312BF0D91AE0FB78002B15D17B68DB6852
:104D980043F080427B68DA600120FBF7C5FEFB68C0
:104DA8000133FB60786801F06CF90346002B05D0ED
:104DB800FB68312BF0D901E0012305E0FB68322BB9
:104DC80001D1012300E0002318461037BD4680BDFD
:104DD80084B080B586B000AF786007F1240080E821
:104DE8000E000023FB757B68FB6000233B6109E034
:104DF8007A683B6940339B00134400225A603B6940
:104E080001333B613B690E2BF2D9FB6C002B1CD1A3
:104E1800FB6803F500635B68FA6802F5006243F01B
:104E2800020353607B689B6B23F400127B689A63D0
:104E38007B681B6843F040027B681A607B681B68CC
:104E480043F080027B681A6005E07B689B6B43F443
:104E580000127B689A63FB6803F560631A460023B7
:104E68001360FB6803F500631946FB6803F50063EC
:104E78001A460B6813600321786800F059F910216D
:104E8800786800F0F1F80346002B01D00123FB7588
:104E9800786800F01DF90346002B01D00123FB754B
:104EA800FB6803F500631A4600231361FB6803F5EA
:104EB80000631A4600235361FB6803F500631A4632
:104EC8000023D36100233B6143E03B695A01FB683F
:104ED800134403F510631B6803F00043B3F1004F5C
:104EE80018D13B69002B0AD13B695A01FB6813446E
:104EF80003F510631A464FF00063136013E03B6933
:104F08005A01FB68134403F510631A464FF09043A7
:104F1800136008E03B695A01FB68134403F510630A
:104F28001A46002313603B695A01FB68134403F5D2
:104F380010631A46002313613B695A01FB68134446
:104F480003F510631A464FF67F3393603B690133CC
:104F58003B617B6A3A699A42B7D300233B6143E0DD
:104F68003B695A01FB68134403F530631B6803F07F
:104F78000043B3F1004F18D13B69002B0AD13B69BC
:104F88005A01FB68134403F530631A464FF0006377
:104F9800136013E03B695A01FB68134403F530635F
:104FA8001A464FF09043136008E03B695A01FB68CA
:104FB800134403F530631A46002313603B695A0112
:104FC800FB68134403F530631A46002313613B69F9
:104FD8005A01FB68134403F530631A464FF67F33D2
:104FE80093603B6901333B617B6A3A699A42B7D364
:104FF800FB6803F500631B69FA6802F5006223F495
:10500800807313617B6800229A617B686FF080422D
:105018005A617B689B6943F010027B689A617B68E0
:105028009A69104B13437A689361FB6B002B05D088
:105038007B689B6943F008027B689A61FB6C012BD3
:1050480007D17B689B6943F0804343F004037A6887
:105058009361FB7D18461837BD46BDE8804004B013
:10506800704700BF00383C8080B485B000AF7860DE
:1050780039600023FB60FB680133FB60FB68134A5F
:10508800934201D903231BE07B681B69002BF2DAEA
:105098000023FB603B689B0143F020027B681A6198
:1050A800FB680133FB60FB68084A934201D903237C
:1050B80006E07B681B6903F02003202BF0D0002357
:1050C80018461437BD465DF8047B7047400D030051
:1050D80080B485B000AF78600023FB60FB680133C3
:1050E800FB60FB68114A934201D9032318E07B68EF
:1050F8001B69002BF2DA0023FB607B6810221A611F
:10510800FB680133FB60FB68084A934201D903231B
:1051180006E07B681B6903F01003102BF0D0002316
:1051280018461437BD465DF8047B7047400D0300F0
:1051380080B485B000AF78600B46FB707B68FB607D
:10514800FB6803F500631A68FB78F96801F50061EC
:1051580013430B60002318461437BD465DF8047BE3
:10516800704780B487B000AF78607B683B613B696B
:1051780003F500639B6803F00603FB60FB68022BE2
:1051880002D0FB68062B02D10223FB7501E00F2336
:10519800FB75FB7D18461C37BD465DF8047B7047E0
:1051A80080B485B000AF786039607B68FB603B688D
:1051B8001B78BB603B685B78012B3AD1FB6803F531
:1051C8000063DA693B681B7803F00F03012101FAD9
:1051D80003F39BB2F96801F500611343CB61BB6827
:1051E8005A01FB68134403F510631B6803F400437A
:1051F800002B55D1BB685A01FB68134403F51063B3
:105208001A683B68DB68C3F30A013B681B799B0497
:105218001943BB689B050B431343BA685101FA68ED
:105228000A4402F5106243F0805343F400431360CC
:1052380036E0FB6803F50063DA693B681B7803F026
:105248000F03012101FA03F31B04F96801F500615A
:105258001343CB61BB685A01FB68134403F5306301
:105268001B6803F40043002B1AD1BB685A01FB6882
:10527800134403F530631A683B68DB68C3F30A011B
:105288003B681B799B040B431343BA685101FA68C6
:105298000A4402F5306243F0805343F4004313603C
:1052A800002318461437BD465DF8047B704700009C
:1052B80080B485B000AF786039607B68FB603B687C
:1052C8001B78BB603B685B78012B61D1BB685A01D6
:1052D800FB68134403F510631B6803F00043B3F144
:1052E800004F1FD1BB685A01FB68134403F51063D4
:1052F8001B68BA685101FA680A4402F5106243F063
:1053080000631360BB685A01FB68134403F510631C
:105318001B68BA685101FA680A4402F5106243F042
:1053280080431360FB6803F50063DA6B3B681B7806
:1053380003F00F03012101FA03F39BB2DB43F96881
:1053480001F500611340CB63FB6803F50063DA697C
:105358003B681B7803F00F03012101FA03F39BB2AA
:10536800DB43F96801F500611340CB61BB685A0162
:10537800FB68134403F510631A68BB685901FB689E
:105388000B4403F510631946354B13400B6060E07E
:10539800BB685A01FB68134403F530631B6803F0CC
:1053A8000043B3F1004F1FD1BB685A01FB68134497
:1053B80003F530631B68BA685101FA680A4402F5BC
:1053C800306243F000631360BB685A01FB68134402
:1053D80003F530631B68BA685101FA680A4402F59C
:1053E800306243F080431360FB6803F50063DA6BB7
:1053F8003B681B7803F00F03012101FA03F31B0438
:10540800DB43F96801F500611340CB63FB6803F5E2
:105418000063DA693B681B7803F00F03012101FA86
:1054280003F31B04DB43F96801F500611340CB610A
:10543800BB685A01FB68134403F530631A68BB68FC
:105448005901FB680B4403F530631946054B1340BB
:105458000B60002318461437BD465DF8047B70477F
:10546800007833EC0078F3EF80B586B000AF786051
:1054780039607B687B613B681B783B613B685B7884
:10548800012B40F00A813B689B69002B32D13B69B4
:105498005A017B69134403F510631B693A6951018A
:1054A8007A690A4402F5106223F0FF5323F4C0130B
:1054B80013613B695A017B69134403F510631B6947
:1054C8003A6951017A690A4402F5106243F40023EB
:1054D80013613B695A017B69134403F510631B6927
:1054E8003A6951017A690A4402F51062DB0CDB045F
:1054F800136174E03B695A017B69134403F5106337
:105508001B693A6951017A690A4402F51062DB0C99
:10551800DB0413613B695A017B69134403F510638B
:105528001B693A6951017A690A4402F5106223F04D
:10553800FF5323F4C01313613B695A017B69134479
:1055480003F510631A693B6899693B68DB680B448B
:10555800591E3B68DB68B1FBF3F3D9049E4B0B4043
:10556800396948017969014401F5106113430B61F8
:105578003B695A017B69134403F510631A693B6858
:105588009B69C3F31203396948017969014401F53C
:10559800106113430B613B681B79012B1FD13B69D9
:1055A8005A017B69134403F510631B693A69510179
:1055B8007A690A4402F5106223F0C04313613B691B
:1055C8005A017B69134403F510631B693A69510159
:1055D8007A690A4402F5106243F0005313613B698B
:1055E8005A017B69134403F510631B683A6951013A
:1055F8007A690A4402F5106243F0044313603B6879
:105608001B79012B15D03B689B69002B00F00681A4
:105618007B6903F500635A6B3B681B7803F00F0343
:10562800012101FA03F3796901F5006113434B6322
:10563800F4E07B6903F500639B6803F48073002B37
:1056480010D13B695A017B69134403F510631B6849
:105658003A6951017A690A4402F5106243F000532D
:1056680013600FE03B695A017B69134403F510632B
:105678001B683A6951017A690A4402F5106243F0DD
:10568800805313603B6819693B681A783B689B69CB
:105698009BB2786800F094FAC0E03B695A017B69D4
:1056A800134403F530631B693A6951017A690A4466
:1056B80002F53062DB0CDB0413613B695A017B693C
:1056C800134403F530631B693A6951017A690A4446
:1056D80002F5306223F0FF5323F4C01313613B68D3
:1056E8009B69002B23D13B695A017B69134403F55D
:1056F80030631A693B68DB68C3F3120339694801F0
:105708007969014401F5306113430B613B695A0122
:105718007B69134403F530631B693A6951017A695F
:105728000A4402F5306243F40023136137E03B6812
:105738009A693B68DB6813445A1E3B68DB68B2FB16
:10574800F3F3FB813B68DB68FA8903FB02F23B68F1
:10575800DA613B695A017B69134403F530631A69BE
:10576800FB89D9041C4B0B4039694801796901440C
:1057780001F5306113430B613B695A017B6913449E
:1057880003F530631A693B68DB69C3F312033969AF
:1057980048017969014401F5306113430B613B68A5
:1057A8001B79012B2AD17B6903F500639B6803F4FD
:1057B8008073002B12D13B695A017B69134403F5AE
:1057C80030631B683A6951017A690A4402F530620C
:1057D80043F00053136011E00000F81F3B695A01C1
:1057E8007B69134403F530631B683A6951017A6990
:1057F8000A4402F5306243F0805313603B695A0152
:105808007B69134403F530631B683A6951017A696F
:105818000A4402F5306243F004431360002318463B
:105828001837BD4680BD00BF80B485B000AF786032
:1058380039607B68FB603B681B78BB603B685B78C2
:10584800012B40F0AB803B689B69002B32D1BB68D1
:105858005A01FB68134403F510631B69BA685101C8
:10586800FA680A4402F5106223F0FF5323F4C013C8
:105878001361BB685A01FB68134403F510631B6985
:10588800BA685101FA680A4402F5106243F4002329
:105898001361BB685A01FB68134403F510631B6965
:1058A800BA685101FA680A4402F51062DB0CDB049D
:1058B80013614EE0BB685A01FB68134403F510639B
:1058C8001B69BA685101FA680A4402F51062DB0CD8
:1058D800DB041361BB685A01FB68134403F51063CA
:1058E8001B69BA685101FA680A4402F5106223F08C
:1058F800FF5323F4C01313613B689A693B68DB6864
:105908009A4203D93B68DA683B689A61BB685A01D6
:10591800FB68134403F510631B69BA685101FA6800
:105928000A4402F5106243F400231361BB685A016C
:10593800FB68134403F510631A693B689B69C3F35A
:105948001203B9684801F968014401F5106113436D
:105958000B61BB685A01FB68134403F510631B68AD
:10596800BA685101FA680A4402F5106243F0044328
:1059780013603B689B69002B71D0FB6803F50063DB
:105988005A6B3B681B7803F00F03012101FA03F3FC
:10599800F96801F5006113434B6360E0BB685A0185
:1059A800FB68134403F530631B69BA685101FA6850
:1059B8000A4402F53062DB0CDB041361BB685A0150
:1059C800FB68134403F530631B69BA685101FA6830
:1059D8000A4402F5306223F0FF5323F4C013136125
:1059E8003B689B69002B03D03B68DA683B689A6187
:1059F8003B68DA683B68DA61BB685A01FB681344A4
:105A080003F530631B69BA685101FA680A4402F564
:105A1800306243F400231361BB685A01FB681344E6
:105A280003F530631A693B68DB69C3F31203B9688D
:105A38004801F968014401F5306113430B61BB6803
:105A48005A01FB68134403F530631B68BA685101B7
:105A5800FA680A4402F5306243F0044313600023F5
:105A680018461437BD465DF8047B704780B487B08C
:105A780000AF786039600023FB600023FB757B680A
:105A88003B613B685B78012B4AD13B681B785A0124
:105A98003B69134403F510631B6803F00043B3F13B
:105AA800004F40F086803B681B785A013B691344DD
:105AB80003F510631B683A68127851013A690A4481
:105AC80002F5106243F0006313603B681B785A01CB
